:020000040800F2
:10000000002800205D0D0008010D0008070D000804
:100010000D0D0008130D0008190D00080000000068
:100020000000000000000000000000001F0D00089C
:100030002B0D000800000000370D0008430D0008DC
:10004000A50D0008A50D0008A50D0008A50D0008C8
:10005000A50D0008A50D0008A50D0008A50D0008B8
:10006000A50D0008A50D0008A50D0008A50D0008A8
:10007000A50D0008A50D0008A50D0008A50D000898
:10008000A50D0008A50D0008A50D0008A50D000888
:10009000A50D0008A50D0008A50D0008A50D000878
:1000A000A50D0008A50D0008A50D0008A50D000868
:1000B000A50D0008A50D000800000000A50D000812
:1000C000A50D00080000000000000000A50D0008BC
:1000D00000000000A50D0008A50D000800000000AC
:1000E000A50D0008A50D0008A50D000800000000E2
:1000F0000000000000000000000000000000000000
:0C01000000000000000000005FF808F1A3
:10010C0010B5054C237833B9044B13B10448AFF345
:10011C0000800123237010BD0C00002000000000A3
:10012C00B81B000808B5034B1BB103490348AFF3D8
:10013C00008008BD0000000010000020B81B000863
:10014C0080B582B000AFC7F804C000220221364847
:10015C0001F00AF900220421334801F005F90022CC
:10016C000821314801F000F9002210212E4801F03D
:10017C00FBF8002220212C4801F0F6F80022402147
:10018C00294801F0F1F801224021284801F0ECF84F
:10019C0001222021254801F0E7F8012210212348F3
:1001AC0001F0E2F801220821204801F0DDF80122DB
:1001BC0004211E4801F0D8F8012202211B4801F04D
:1001CC00D3F801220121194801F0CEF801224FF495
:1001DC000041164801F0C8F801224FF48041134841
:1001EC0001F0C2F801224FF40051104801F0BCF8A4
:1001FC0001224FF480510D4801F0B6F801224FF462
:10020C0000610A4801F0B0F801224FF48061074800
:10021C0001F0AAF801224FF40071044801F0A4F88F
:10022C0000BF0837BD4680BD00080140000C0140EE
:10023C0080B584B000AF07F118033B6000F0AEFD51
:10024C0000F0A0FC00F0DAFC3B469C46FFF778FF80
:10025C000523FB600323BB6001237B607B68012BC0
:10026C0042D1FB68002B1CDDBB68002B01D10223A3
:10027C00BB603B469C46786800F0E8FBFB68022BB1
:10028C0007DD7B6801333A469446184600F046FC7D
:10029C0019E07B6801333A469446184600F00AFC94
:1002AC0011E002237B600523BB600323FB603B460C
:1002BC009C46786800F0CAFB7B68013B3A46944642
:1002CC00184600F02BFC3B469C46F86800F054F8AE
:1002DC003B469C46B86800F0DFF9FB68013BFB60CD
:1002EC00BB68013BBB6041E0BB68002B1CDDFB68BD
:1002FC00002B01D10223FB603B469C46786800F042
:10030C00A5FBBB68022B07DD7B68013B3A46944694
:10031C00184600F003FC19E07B68013B3A46944612
:10032C00184600F0C7FB11E001237B600523FB603E
:10033C000323BB603B469C46786800F087FB7B68D8
:10034C0001333A469446184600F0E8FB3B469C467F
:10035C00F86800F011F83B469C46B86800F09CF930
:10036C00FB68013BFB60BB68013BBB604FF47A70E0
:10037C0000F076FD72E7000080B582B000AF7860C7
:10038C00C7F800C07B68092B00F2808101A252F8EB
:10039C0023F000BFC9030008110400085904000829
:1003AC00A1040008E90400083105000879050008DB
:1003BC00C10500080906000851060008002240216A
:1003CC00B44800F0D1FF00222021B24800F0CCFF4D
:1003DC0000221021AF4800F0C7FF00220821AD48D1
:1003EC0000F0C2FF00220421AA4800F0BDFF002249
:1003FC000221A84800F0B8FF01220121A54800F015
:10040C00B3FF43E101224021A24800F0ADFF0022DE
:10041C002021A04800F0A8FF002210219D4800F0E8
:10042C00A3FF012208219B4800F09EFF012204211A
:10043C00984800F099FF01220221964800F094FFA1
:10044C0001220121934800F08FFF1FE1002240217F
:10045C00904800F089FF002220218E4800F084FF94
:10046C00012210218B4800F07FFF002208218948CF
:10047C0000F07AFF00220421864800F075FF01226B
:10048C000221844800F070FF00220121814800F015
:10049C006BFFFBE0002240217E4800F065FF00224C
:1004AC0020217C4800F060FF00221021794800F0E8
:1004BC005BFF00220821774800F056FF012204213F
:1004CC00744800F051FF01220221724800F04CFFE9
:1004DC00002201216F4800F047FFD7E001224021A4
:1004EC006C4800F041FF002220216A4800F03CFFDC
:1004FC0000221021674800F037FF012208216548CF
:10050C0000F032FF01220421624800F02DFF00228E
:10051C000221604800F028FF002201215D4800F014
:10052C0023FFB3E0002240215A4800F01DFF0122B6
:10053C002021584800F018FF00221021554800F0E7
:10054C0013FF00220821534800F00EFF0122042162
:10055C00504800F009FF002202214E4800F004FF31
:10056C00002201214B4800F0FFFE8FE000224021C9
:10057C00484800F0F9FE01222021464800F0F4FE24
:10058C0000221021434800F0EFFE002208214148D0
:10059C0000F0EAFE002204213E4800F0E5FE0022B5
:1005AC0002213C4800F0E0FE00220121394800F015
:1005BC00DBFE6BE000224021364800F0D5FE002225
:1005CC002021344800F0D0FE00221021314800F0E8
:1005DC00CBFE012208212F4800F0C6FE0122042187
:1005EC002C4800F0C1FE012202212A4800F0BCFE7A
:1005FC0001220121274800F0B7FE47E000224021EC
:10060C00244800F0B1FE00222021224800F0ACFE6C
:10061C00002210211F4800F0A7FE002208211D48CF
:10062C0000F0A2FE002204211A4800F09DFE0022D8
:10063C000221184800F098FE00220121154800F014
:10064C0093FE23E000224021124800F08DFE002290
:10065C002021104800F088FE002210210D4800F0E7
:10066C0083FE002208210B4800F07EFE01220421AB
:10067C00084800F079FE00220221064800F074FEC2
:10068C0000220121034800F06FFE00BF00BF0837B5
:10069C00BD4680BD000C014080B582B000AF7860D3
:1006AC00C7F800C07B68092B00F2C98101A252F87F
:1006BC0023F000BFE90600083F0700089507000873
:1006CC00EB0700084108000897080008ED0800082F
:1006DC004309000899090008F509000800224FF4A5
:1006EC000041C04800F040FE00224FF48041BD485C
:1006FC0000F03AFE00224FF40051BA4800F034FEEC
:10070C0000224FF48051B74800F02EFE00224FF427
:10071C000061B44800F028FE00224FF48061B1481B
:10072C0000F022FE01224FF40071AE4800F01CFED6
:10073C0085E101224FF40041AA4800F015FE002289
:10074C004FF48041A74800F00FFE00224FF40051F7
:10075C00A44800F009FE01224FF48051A14800F09A
:10076C0003FE01224FF400619E4800F0FDFD0122C2
:10077C004FF480619B4800F0F7FD01224FF40071AB
:10078C00984800F0F1FD5AE100224FF400419548E1
:10079C0000F0EAFD00224FF48041924800F0E4FDA5
:1007AC0001224FF400518F4800F0DEFD00224FF47F
:1007BC0080518C4800F0D8FD00224FF4006189482C
:1007CC0000F0D2FD01224FF48061864800F0CCFD90
:1007DC0000224FF40071834800F0C6FD2FE1002287
:1007EC004FF400417F4800F0BFFD00224FF48041E0
:1007FC007C4800F0B9FD00224FF40051794800F01C
:10080C00B3FD00224FF48051764800F0ADFD01227B
:10081C004FF40061734800F0A7FD01224FF4806192
:10082C00704800F0A1FD00224FF400716D4800F0FB
:10083C009BFD04E101224FF400416A4800F094FD55
:10084C0000224FF48041674800F08EFD00224FF4E7
:10085C000051644800F088FD01224FF4805161483A
:10086C0000F082FD01224FF400615E4800F07CFD37
:10087C0000224FF480615B4800F076FD00224FF4BB
:10088C000071584800F070FDD9E000224FF400418F
:10089C00544800F069FD01224FF48041514800F0AA
:1008AC0063FD00224FF400514E4800F05DFD002224
:1008BC004FF480514B4800F057FD01224FF400617A
:1008CC00484800F051FD00224FF48061454800F08B
:1008DC004BFD00224FF40071424800F045FDAEE0A4
:1008EC0000224FF400413F4800F03EFD01224FF43E
:1008FC0080413C4800F038FD00224FF4005139484B
:10090C0000F032FD00224FF48051364800F02CFDEF
:10091C0000224FF40061334800F026FD00224FF412
:10092C008061304800F020FD00224FF400712D480A
:10093C0000F01AFD83E000224FF40041294800F03A
:10094C0013FD00224FF48041264800F00DFD0022DB
:10095C004FF40051234800F007FD01224FF4805161
:10096C00204800F001FD01224FF400611D4800F009
:10097C00FBFC01224FF480611A4800F0F5FC0122C7
:10098C004FF40071174800F0EFFC58E000224FF4D0
:10099C000041144800F0E8FC00224FF4804111485B
:1009AC0000F0E2FC00224FF400510E4800F0DCFC99
:1009BC0000224FF480510B4800F0D6FC00224FF47B
:1009CC000061084800F0D0FC00224FF4806105481B
:1009DC0000F0CAFC00224FF40071024800F0C4FC85
:1009EC002DE000BF000C014000224FF400411648DE
:1009FC0000F0BAFC00224FF48041134800F0B4FC24
:100A0C0000224FF40051104800F0AEFC00224FF4CD
:100A1C0080510D4800F0A8FC01224FF400610A48F7
:100A2C0000F0A2FC00224FF48061074800F09CFC0F
:100A3C0000224FF40071044800F096FC00BF00BF88
:100A4C000837BD4680BD00BF000C014080B582B0A8
:100A5C0000AF7860C7F800C07B68012B03D07B68BF
:100A6C00022B10D01FE001220221114800F07CFC67
:100A7C00002204210E4800F077FC002208210C48CB
:100A8C0000F072FC0FE001221021094800F06CFC10
:100A9C0000222021064800F067FC00224021044877
:100AAC0000F062FC00BF00BF0837BD4680BD00BF30
:100ABC000008014080B582B000AF7860C7F800C074
:100ACC007B68012B03D07B68022B10D01FE0002227
:100ADC000221114800F048FC012204210E4800F0CC
:100AEC0043FC002208210C4800F03EFC0FE00022E1
:100AFC001021094800F038FC01222021064800F0A2
:100B0C0033FC00224021044800F02EFC00BF00BF43
:100B1C000837BD4680BD00BF0008014080B582B0DB
:100B2C0000AF7860C7F800C07B68012B03D07B68EE
:100B3C00022B10D01FE000220221114800F014FCFF
:100B4C00002204210E4800F00FFC012208210C4861
:100B5C0000F00AFC0FE000221021094800F004FC10
:100B6C0000222021064800F0FFFB0122402104480E
:100B7C0000F0FAFB00BF00BF0837BD4680BD00BFC8
:100B8C000008014080B590B000AF07F1180328228F
:100B9C000021184600F0DEFF3B1D00221A605A604F
:100BAC009A60DA601A610223BB610123BB621023D5
:100BBC00FB6200237B6307F11803184600F0ECFB83
:100BCC000346002B01D000F06DF80F237B6000234F
:100BDC00BB600023FB6000233B6100237B613B1D5A
:100BEC000021184600F05AFE0346002B01D000F0FD
:100BFC0059F800BF4037BD4680BD000080B586B0B7
:100C0C0000AF07F1080300221A605A609A60DA609C
:100C1C00214B9B69204A43F0040393611E4B9B6953
:100C2C0003F004037B607B681B4B9B691A4A43F0FF
:100C3C0008039361184B9B6903F008033B603B6806
:100C4C0000227E21154800F08FFB00224FF67F61B9
:100C5C00134800F089FB7E23BB600123FB6000235B
:100C6C003B6102237B6107F1080319460B4800F036
:100C7C00FFF94FF67F63BB600123FB6000233B61F0
:100C8C0002237B6107F108031946054800F0F0F9CF
:100C9C0000BF1837BD4680BD00100240000801405F
:100CAC00000C014080B400AF72B600BFFEE700003C
:100CBC0080B483B000AF0E4B9B690D4A43F0010327
:100CCC0093610B4B9B6903F001037B607B68084BC2
:100CDC00DB69074A43F08053D361054BDB6903F0B2
:100CEC0080533B603B6800BF0C37BD4680BC7047EF
:100CFC000010024080B400AFFEE780B400AFFEE706
:100D0C0080B400AFFEE780B400AFFEE780B400AF64
:100D1C00FEE780B400AF00BFBD4680BC704780B416
:100D2C0000AF00BFBD4680BC704780B400AF00BFB1
:100D3C00BD4680BC704780B500AF00F075F800BFB1
:100D4C0080BD80B400AF00BFBD4680BC70470000C2
:100D5C00FFF7F7FF0B480C490C4A002302E0D4586C
:100D6C00C4500433C4188C42F9D3094A094C0023EB
:100D7C0001E013600432A242FBD300F0F3FEFFF754
:100D8C0057FA7047000000200C000020FC1B0008E4
:100D9C000C0000202C000020FEE7000080B500AF06
:100DAC00084B1B68074A43F010031360032000F044
:100DBC002BF90F2000F008F8FFF77AFF00231846F4
:100DCC0080BD00BF0020024080B582B000AF7860CB
:100DDC00124B1A68124B1B7819464FF47A73B3FBFB
:100DEC00F1F3B2FBF3F3184600F035F90346002B90
:100DFC0001D001230EE07B680F2B0AD80022796802
:100E0C004FF0FF3000F00BF9064A7B6813600023AB
:100E1C0000E0012318460837BD4680BD00000020C5
:100E2C00080000200400002080B400AF054B1B78A4
:100E3C001A46054B1B681344034A136000BFBD469A
:100E4C0080BC7047080000202800002080B400AF50
:100E5C00024B1B681846BD4680BC7047280000201A
:100E6C0080B584B000AF7860FFF7F0FFB8607B68A6
:100E7C00FB60FB68B3F1FF3F05D00A4B1B781A46A9
:100E8C00FB681344FB6000BFFFF7E0FF0246BB6842
:100E9C00D31AFA689A42F7D800BF00BF1037BD4684
:100EAC0080BD00BF0800002080B485B000AF786022
:100EBC007B6803F00703FB600C4BDB68BB60BA6814
:100ECC004FF6FF031340BB60FB681A02BB68134369
:100EDC0043F0BF6343F40033BB60044ABB68D36088
:100EEC0000BF1437BD4680BC704700BF00ED00E06A
:100EFC0080B400AF044BDB681B0A03F007031846F1
:100F0C00BD4680BC704700BF00ED00E080B483B0EC
:100F1C0000AF03463960FB7197F90730002B0ADBF1
:100F2C003B68DAB20C4997F907301201D2B20B4484
:100F3C0083F800230AE03B68DAB20849FB7903F036
:100F4C000F03043B1201D2B20B441A7600BF0C37CC
:100F5C00BD4680BC704700BF00E100E000ED00E042
:100F6C0080B489B000AFF860B9607A60FB6803F0B8
:100F7C000703FB61FB69C3F10703042B28BF0423A0
:100F8C00BB61FB690433062B02D9FB69033B00E010
:100F9C0000237B614FF0FF32BB6902FA03F3DA43A3
:100FAC00BB681A407B699A404FF0FF317B6901FAAC
:100FBC0003F3D9437B680B40134318462437BD46D3
:100FCC0080BC704780B582B000AF78607B68013B15
:100FDC00B3F1807F01D301230FE00A4A7B68013B08
:100FEC0053600F214FF0FF30FFF790FF054B0022AD
:100FFC009A60044B07221A60002318460837BD4636
:10100C0080BD00BF10E000E080B582B000AF78601A
:10101C007868FFF749FF00BF0837BD4680BD80B533
:10102C0086B000AF0346B9607A60FB7300237B6126
:10103C00FFF75EFF78617A68B9687869FFF790FF0F
:10104C00024697F90F3011461846FFF75FFF00BFB5
:10105C001837BD4680BD80B582B000AF7860786827
:10106C00FFF7B0FF034618460837BD4680BD0000A9
:10107C0080B48BB000AF7860396000237B620023B2
:10108C003B6261E101227B6A02FA03F3FB613B687C
:10109C001B68FA691340BB61BA69FB699A4240F05C
:1010AC0050813B685B68974A93425ED0954A934265
:1010BC0075D8954A934258D0934A93426FD8934A25
:1010CC00934252D0914A934269D8914A93424CD060
:1010DC008F4A934263D88F4A934246D08D4A9342AB
:1010EC005DD8122B2AD8122B59D801A252F823F012
:1010FC00771100085111000863110008A5110008B0
:10110C00AB110008AB110008AB110008AB110008C3
:10111C00AB110008AB110008AB110008AB110008B3
:10112C00AB110008AB110008AB110008AB110008A3
:10113C00AB110008591100086D110008764A934252
:10114C0013D02CE03B68DB683B6229E03B68DB6832
:10115C0004333B6224E03B68DB6808333B621FE0EE
:10116C003B68DB680C333B621AE03B689B68002BE6
:10117C0002D104233B6213E03B689B68012B05D131
:10118C0008233B627B68FA691A6109E008233B6219
:10119C007B68FA695A6103E000233B6200E000BF00
:1011AC00BB69FF2B01D87B6801E07B6804337B6152
:1011BC00BB69FF2B02D87B6A9B0002E07B6A083B71
:1011CC009B003B617B691A680F213B6901FA03F3B1
:1011DC00DB431A40396A3B6901FA03F31A437B6912
:1011EC001A603B685B6803F08053002B00F0A98009
:1011FC004A4B9B69494A43F001039361474B9B69F6
:10120C0003F00103BB60BB68454A7B6A9B08023351
:10121C0052F82330FB607B6A03F003039B000F2220
:10122C0002FA03F3DB43FA681340FB607B683D4A28
:10123C0093420DD07B683C4A934207D07B683B4A73
:10124C00934201D1022304E0032302E0012300E0D6
:10125C0000237A6A02F0030292009340FA68134367
:10126C00FB602F497B6A9B080233FA6841F8232004
:10127C003B685B6803F48013002B06D02C4B9A68F8
:10128C002B49BB6913438B6006E0294B9A68BB69F9
:10129C00DB43274913408B603B685B6803F4001306
:1012AC00002B06D0224BDA682149BB691343CB6073
:1012BC0006E01F4BDA68BB69DB431D491340CB606A
:1012CC003B685B6803F40033002B06D0184B5A685C
:1012DC001749BB6913434B6006E0154B5A68BB6951
:1012EC00DB43134913404B603B685B6803F480336A
:1012FC00002B1FD00E4B1A680D49BB6913430B60B2
:10130C001FE000BF0000321000003110000022105E
:10131C0000002110000012100000111000100240FB
:10132C000000014000080140000C01400010014089
:10133C00000401400B4B1A68BB69DB43094913409D
:10134C000B607B6A01337B623B681A687B6A22FA0A
:10135C0003F3002B7FF496AE00BF00BF2C37BD46C5
:10136C0080BC70470004014080B483B000AF78604B
:10137C000B467B8013467B707B78002B03D07A88DE
:10138C007B681A6103E07B881A047B681A6100BFD2
:10139C000C37BD4680BC704780B586B000AF786016
:1013AC007B68002B01D1012372E27B681B6803F080
:1013BC000103002B00F08780924B5B6803F00C0359
:1013CC00042B0CD08F4B5B6803F00C03082B12D151
:1013DC008C4B5B6803F48033B3F5803F0BD1894BA6
:1013EC001B6803F40033002B6CD07B685B68002B0C
:1013FC0068D101234CE27B685B68B3F5803F06D172
:10140C00804B1B687F4A43F4803313602EE07B686B
:10141C005B68002B0CD17B4B1B687A4A23F480331E
:10142C001360784B1B68774A23F4802313601DE00C
:10143C007B685B68B3F5A02F0CD1724B1B68714AAB
:10144C0043F4802313606F4B1B686E4A43F4803364
:10145C0013600BE06B4B1B686A4A23F480331360F8
:10146C00684B1B68674A23F4802313607B685B68B6
:10147C00002B13D0FFF7EAFC386108E0FFF7E6FC1D
:10148C0002463B69D31A642B01D9032300E25D4B5E
:10149C001B6803F40033002BF0D014E0FFF7D6FCEC
:1014AC00386108E0FFF7D2FC02463B69D31A642B83
:1014BC0001D90323ECE1534B1B6803F40033002BDD
:1014CC00F0D100E000BF7B681B6803F00203002B27
:1014DC0063D04C4B5B6803F00C03002B0BD0494BD7
:1014EC005B6803F00C03082B1CD1464B5B6803F4C0
:1014FC008033002B16D1434B1B6803F00203002BE7
:10150C0005D07B681B69012B01D00123C0E13D4B49
:10151C001B6823F0F8027B685B69DB0039491343D5
:10152C000B603AE07B681B69002B20D0364B012204
:10153C001A60FFF78BFC386108E0FFF787FC024666
:10154C003B69D31A022B01D90323A1E12D4B1B6854
:10155C0003F00203002BF0D02A4B1B6823F0F80297
:10156C007B685B69DB00274913430B6015E0264B56
:10157C0000221A60FFF76AFC386108E0FFF766FC8E
:10158C0002463B69D31A022B01D9032380E11D4B80
:10159C001B6803F00203002BF0D17B681B6803F07F
:1015AC000803002B3AD07B689B69002B19D0174B92
:1015BC0001221A60FFF74AFC386108E0FFF746FC8D
:1015CC0002463B69D31A022B01D9032360E10D4B70
:1015DC005B6A03F00203002BF0D0012000F09CFAB0
:1015EC001CE00A4B00221A60FFF730FC38610FE058
:1015FC00FFF72CFC02463B69D31A022B08D90323B4
:10160C0046E100BF0010024000004242800442420A
:10161C00924B5B6A03F00203002BE9D17B681B68D9
:10162C0003F00403002B00F0A6800023FB758B4B0A
:10163C00DB6903F08053002B0DD1884BDB69874AA3
:10164C0043F08053D361854BDB6903F08053BB605F
:10165C00BB680123FB75824B1B6803F48073002B62
:10166C0018D17F4B1B687E4A43F480731360FFF7DD
:10167C00EDFB386108E0FFF7E9FB02463B69D31A42
:10168C00642B01D9032303E1754B1B6803F48073AE
:10169C00002BF0D07B68DB68012B06D16F4B1B6AEB
:1016AC006E4A43F0010313622DE07B68DB68002B6C
:1016BC000CD16A4B1B6A694A23F001031362674B16
:1016CC001B6A664A23F0040313621CE07B68DB6828
:1016DC00052B0CD1614B1B6A604A43F00403136267
:1016EC005E4B1B6A5D4A43F0010313620BE05B4BDC
:1016FC001B6A5A4A23F001031362584B1B6A574A60
:10170C0023F0040313627B68DB68002B15D0FFF712
:10171C009DFB38610AE0FFF799FB02463B69D31A3F
:10172C0041F28832934201D90323B1E04B4B1B6A3F
:10173C0003F00203002BEED014E0FFF787FB3861B7
:10174C000AE0FFF783FB02463B69D31A41F2883269
:10175C00934201D903239BE0404B1B6A03F0020325
:10176C00002BEED1FB7D012B05D13C4BDB693B4AB9
:10177C0023F08053D3617B68DB69002B00F08780FA
:10178C00364B5B6803F00C03082B61D07B68DB697C
:10179C00022B46D1334B00221A60FFF757FB3861FE
:1017AC0008E0FFF753FB02463B69D31A022B01D921
:1017BC0003236DE0294B1B6803F00073002BF0D161
:1017CC007B681B6AB3F5803F08D1244B5B6823F41C
:1017DC0000327B689B68214913434B601F4B5B684D
:1017EC0023F474127B68196A7B685B6A0B431B4990
:1017FC0013434B601B4B01221A60FFF727FB386128
:10180C0008E0FFF723FB02463B69D31A022B01D9F0
:10181C0003233DE0114B1B6803F00073002BF0D049
:10182C0035E0104B00221A60FFF710FB386108E01E
:10183C00FFF70CFB02463B69D31A022B01D9032399
:10184C0026E0064B1B6803F00073002BF0D11EE062
:10185C007B68DB69012B07D1012319E000100240E2
:10186C0000700040600042420B4B5B68FB60FB6801
:10187C0003F480327B681B6A9A4206D1FB6803F43E
:10188C0070127B685B6A9A4201D0012300E000234E
:10189C0018461837BD4680BD0010024080B584B094
:1018AC0000AF786039607B68002B01D10123D0E058
:1018BC006A4B1B6803F007033A689A4210D9674BCE
:1018CC001B6823F0070265493B6813430B60634BAD
:1018DC001B6803F007033A689A4201D00123B8E071
:1018EC007B681B6803F00203002B20D07B681B680D
:1018FC0003F00403002B05D0594B5B68584A43F4A2
:10190C00E06353607B681B6803F00803002B05D071
:10191C00534B5B68524A43F460535360504B5B68C3
:10192C0023F0F0027B689B684D4913434B607B6846
:10193C001B6803F00103002B40D07B685B68012B14
:10194C0007D1474B1B6803F40033002B15D101233F
:10195C007FE07B685B68022B07D1414B1B6803F06F
:10196C000073002B09D1012373E03D4B1B6803F07E
:10197C000203002B01D101236BE0394B5B6823F090
:10198C0003027B685B68364913434B60FFF75EFAD2
:10199C00F8600AE0FFF75AFA0246FB68D31A41F2E4
:1019AC008832934201D9032353E02D4B5B6803F03B
:1019BC000C027B685B689B009A42EBD1274B1B683F
:1019CC0003F007033A689A4210D2244B1B6823F0A9
:1019DC00070222493B6813430B60204B1B6803F042
:1019EC0007033A689A4201D0012332E07B681B68F6
:1019FC0003F00403002B08D0194B5B6823F4E0625E
:101A0C007B68DB68164913434B607B681B6803F0EB
:101A1C000803002B09D0124B5B6823F460527B68DF
:101A2C001B69DB000E4913434B6000F021F80246A2
:101A3C000B4B5B681B0903F00F030A49CB5C22FAC2
:101A4C0003F3094A1360094B1B681846FFF7BCF9EE
:101A5C00002318461037BD4680BD00BF0020024051
:101A6C0000100240D01B00080000002004000020E1
:101A7C0080B487B000AF0023FB600023BB60002361
:101A8C007B6100237B6000233B611E4B5B68FB602A
:101A9C00FB6803F00C03042B02D0082B03D027E0C7
:101AAC00194B3B6127E0FB689B0C03F00F03174AB3
:101ABC00D35C7B60FB6803F48033002B10D0114B9C
:101ACC005B685B0C03F00103114AD35CBB607B6861
:101ADC000D4A03FB02F2BB68B2FBF3F37B6104E03B
:101AEC007B680C4A02FB03F37B617B693B6102E080
:101AFC00054B3B6100BF3B6918461C37BD4680BC9B
:101B0C00704700BF0010024000127A00E01B000872
:101B1C00F01B000800093D0080B485B000AF786070
:101B2C000A4B1B680A4AA2FB03235B0A7A6802FB76
:101B3C0003F3FB6000BFFB685A1EFA60002BF9D15F
:101B4C0000BF00BF1437BD4680BC704700000020AA
:101B5C00D34D621003460244934200D1704703F800
:101B6C00011BF9E770B500260C4D0D4C641BA4103D
:101B7C00A64209D100F01AF800260A4D0A4C641B43
:101B8C00A410A64205D170BD55F8043B9847013608
:101B9C00EEE755F8043B98470136F2E7F41B0008D2
:101BAC00F41B0008F41B0008F81B0008F8B500BF74
:101BBC00F8BC08BC9E467047F8B500BFF8BC08BC22
:041BCC009E4670477A
:101BD00000000000000000000102030406070809DD
:101BE00002030405060708090A0B0C0D0E0F10105E
:041BF00001020000EE
:041BF40031010008B3
:041BF8000D010008D3
:0C1BFC000024F4001000000001000000B4
:0400000508000D5D85
:00000001FF
